{
  "_format": "hh-sol-artifact-1",
  "contractName": "BasicTransfers",
  "sourceName": "contracts/BasicTransfers.sol",
  "abi": [
    {
      "inputs": [
        {
          "internalType": "address payable",
          "name": "recipient",
          "type": "address"
        }
      ],
      "name": "transferEth",
      "outputs": [],
      "stateMutability": "payable",
      "type": "function"
    },
    {
      "inputs": [
        {
          "internalType": "address",
          "name": "tokenAddress",
          "type": "address"
        },
        {
          "internalType": "address",
          "name": "recipient",
          "type": "address"
        },
        {
          "internalType": "uint256",
          "name": "amount",
          "type": "uint256"
        }
      ],
      "name": "transferToken",
      "outputs": [],
      "stateMutability": "nonpayable",
      "type": "function"
    }
  ],
  "bytecode": "0x60806040526000805460ff1916905534801561001a57600080fd5b506105e08061002a6000396000f3fe6080604052600436106100295760003560e01c806330df47af1461002e578063f5537ede14610043575b600080fd5b61004161003c36600461035f565b610063565b005b34801561004f57600080fd5b5061004161005e366004610382565b610159565b60005460ff161561007357600080fd5b6000805460ff191660011790556001600160a01b0381166100af5760405162461bcd60e51b81526004016100a6906104b6565b60405180910390fd5b600034116100cf5760405162461bcd60e51b81526004016100a690610486565b6000816001600160a01b0316346040516100e8906103fa565b60006040518083038185875af1925050503d8060008114610125576040519150601f19603f3d011682016040523d82523d6000602084013e61012a565b606091505b505090508061014b5760405162461bcd60e51b81526004016100a69061055b565b50506000805460ff19169055565b60005460ff161561016957600080fd5b6000805460ff19166001179055806101935760405162461bcd60e51b81526004016100a690610524565b6040516370a0823160e01b815281906001600160a01b038516906370a08231906101c19033906004016103fd565b60206040518083038186803b1580156101d957600080fd5b505afa1580156101ed573d6000803e3d6000fd5b505050506040513d601f19601f8201168201806040525081019061021191906103e2565b101561022f5760405162461bcd60e51b81526004016100a6906104ed565b604051636eb1769f60e11b815281906001600160a01b0385169063dd62ed3e9061025f9033903090600401610411565b60206040518083038186803b15801561027757600080fd5b505afa15801561028b573d6000803e3d6000fd5b505050506040513d601f19601f820116820180604052508101906102af91906103e2565b10156102cd5760405162461bcd60e51b81526004016100a69061044f565b6040516323b872dd60e01b81526001600160a01b038416906323b872dd906102fd9033908690869060040161042b565b602060405180830381600087803b15801561031757600080fd5b505af115801561032b573d6000803e3d6000fd5b505050506040513d601f19601f8201168201806040525081019061034f91906103c2565b50506000805460ff191690555050565b600060208284031215610370578081fd5b813561037b81610592565b9392505050565b600080600060608486031215610396578182fd5b83356103a181610592565b925060208401356103b181610592565b929592945050506040919091013590565b6000602082840312156103d3578081fd5b8151801515811461037b578182fd5b6000602082840312156103f3578081fd5b5051919050565b90565b6001600160a01b0391909116815260200190565b6001600160a01b0392831681529116602082015260400190565b6001600160a01b039384168152919092166020820152604081019190915260600190565b6020808252601f908201527f496e73756666696369656e74207472616e7366657220616c6c6f77616e636500604082015260600190565b602080825260169082015275496e76616c6964207472616e736665722076616c756560501b604082015260600190565b60208082526019908201527f496e76616c696420726563697069656e74206164647265737300000000000000604082015260600190565b6020808252601a908201527f496e73756666696369656e7420746f6b656e2062616c616e6365000000000000604082015260600190565b60208082526017908201527f496e76616c6964207472616e7366657220616d6f756e74000000000000000000604082015260600190565b60208082526017908201527f526563697069656e742063616c6c207265766572746564000000000000000000604082015260600190565b6001600160a01b03811681146105a757600080fd5b5056fea26469706673582212206fe27588b41e9f2bf12557fee8067f200b8cc5b7c140fddc0991e3a7534e029464736f6c63430008000033",
  "linkReferences": {},
  "deployedLinkReferences": {}
}