{
  "_format": "hh-sol-artifact-1",
  "contractName": "GMToken",
  "sourceName": "contracts/GMToken.sol",
  "abi": [
    {
      "inputs": [],
      "stateMutability": "nonpayable",
      "type": "constructor"
    },
    {
      "anonymous": false,
      "inputs": [
        {
          "indexed": true,
          "internalType": "address",
          "name": "utility",
          "type": "address"
        },
        {
          "indexed": false,
          "internalType": "uint256",
          "name": "amount",
          "type": "uint256"
        }
      ],
      "name": "Allocated",
      "type": "event"
    },
    {
      "anonymous": false,
      "inputs": [
        {
          "indexed": true,
          "internalType": "address",
          "name": "owner",
          "type": "address"
        },
        {
          "indexed": true,
          "internalType": "address",
          "name": "spender",
          "type": "address"
        },
        {
          "indexed": false,
          "internalType": "uint256",
          "name": "value",
          "type": "uint256"
        }
      ],
      "name": "Approval",
      "type": "event"
    },
    {
      "anonymous": false,
      "inputs": [
        {
          "indexed": true,
          "internalType": "address",
          "name": "utility",
          "type": "address"
        },
        {
          "indexed": false,
          "internalType": "uint256",
          "name": "amount",
          "type": "uint256"
        }
      ],
      "name": "Released",
      "type": "event"
    },
    {
      "anonymous": false,
      "inputs": [
        {
          "indexed": true,
          "internalType": "bytes32",
          "name": "role",
          "type": "bytes32"
        },
        {
          "indexed": true,
          "internalType": "bytes32",
          "name": "previousAdminRole",
          "type": "bytes32"
        },
        {
          "indexed": true,
          "internalType": "bytes32",
          "name": "newAdminRole",
          "type": "bytes32"
        }
      ],
      "name": "RoleAdminChanged",
      "type": "event"
    },
    {
      "anonymous": false,
      "inputs": [
        {
          "indexed": true,
          "internalType": "bytes32",
          "name": "role",
          "type": "bytes32"
        },
        {
          "indexed": true,
          "internalType": "address",
          "name": "account",
          "type": "address"
        },
        {
          "indexed": true,
          "internalType": "address",
          "name": "sender",
          "type": "address"
        }
      ],
      "name": "RoleGranted",
      "type": "event"
    },
    {
      "anonymous": false,
      "inputs": [
        {
          "indexed": true,
          "internalType": "bytes32",
          "name": "role",
          "type": "bytes32"
        },
        {
          "indexed": true,
          "internalType": "address",
          "name": "account",
          "type": "address"
        },
        {
          "indexed": true,
          "internalType": "address",
          "name": "sender",
          "type": "address"
        }
      ],
      "name": "RoleRevoked",
      "type": "event"
    },
    {
      "anonymous": false,
      "inputs": [
        {
          "indexed": true,
          "internalType": "address",
          "name": "from",
          "type": "address"
        },
        {
          "indexed": true,
          "internalType": "address",
          "name": "to",
          "type": "address"
        },
        {
          "indexed": false,
          "internalType": "uint256",
          "name": "value",
          "type": "uint256"
        }
      ],
      "name": "Transfer",
      "type": "event"
    },
    {
      "inputs": [],
      "name": "BURNER_ROLE",
      "outputs": [
        {
          "internalType": "bytes32",
          "name": "",
          "type": "bytes32"
        }
      ],
      "stateMutability": "view",
      "type": "function"
    },
    {
      "inputs": [],
      "name": "DEFAULT_ADMIN_ROLE",
      "outputs": [
        {
          "internalType": "bytes32",
          "name": "",
          "type": "bytes32"
        }
      ],
      "stateMutability": "view",
      "type": "function"
    },
    {
      "inputs": [],
      "name": "MINTER_ROLE",
      "outputs": [
        {
          "internalType": "bytes32",
          "name": "",
          "type": "bytes32"
        }
      ],
      "stateMutability": "view",
      "type": "function"
    },
    {
      "inputs": [
        {
          "internalType": "address",
          "name": "utility",
          "type": "address"
        },
        {
          "internalType": "uint256",
          "name": "amount",
          "type": "uint256"
        }
      ],
      "name": "allocate",
      "outputs": [],
      "stateMutability": "nonpayable",
      "type": "function"
    },
    {
      "inputs": [],
      "name": "allocated",
      "outputs": [
        {
          "internalType": "uint256",
          "name": "",
          "type": "uint256"
        }
      ],
      "stateMutability": "view",
      "type": "function"
    },
    {
      "inputs": [
        {
          "internalType": "address",
          "name": "utility",
          "type": "address"
        }
      ],
      "name": "allocationOf",
      "outputs": [
        {
          "internalType": "uint256",
          "name": "",
          "type": "uint256"
        }
      ],
      "stateMutability": "view",
      "type": "function"
    },
    {
      "inputs": [
        {
          "internalType": "address",
          "name": "owner",
          "type": "address"
        },
        {
          "internalType": "address",
          "name": "spender",
          "type": "address"
        }
      ],
      "name": "allowance",
      "outputs": [
        {
          "internalType": "uint256",
          "name": "",
          "type": "uint256"
        }
      ],
      "stateMutability": "view",
      "type": "function"
    },
    {
      "inputs": [
        {
          "internalType": "address",
          "name": "spender",
          "type": "address"
        },
        {
          "internalType": "uint256",
          "name": "amount",
          "type": "uint256"
        }
      ],
      "name": "approve",
      "outputs": [
        {
          "internalType": "bool",
          "name": "",
          "type": "bool"
        }
      ],
      "stateMutability": "nonpayable",
      "type": "function"
    },
    {
      "inputs": [
        {
          "internalType": "address",
          "name": "account",
          "type": "address"
        }
      ],
      "name": "balanceOf",
      "outputs": [
        {
          "internalType": "uint256",
          "name": "",
          "type": "uint256"
        }
      ],
      "stateMutability": "view",
      "type": "function"
    },
    {
      "inputs": [
        {
          "internalType": "uint256",
          "name": "amount",
          "type": "uint256"
        }
      ],
      "name": "burn",
      "outputs": [
        {
          "internalType": "bool",
          "name": "",
          "type": "bool"
        }
      ],
      "stateMutability": "nonpayable",
      "type": "function"
    },
    {
      "inputs": [],
      "name": "decimals",
      "outputs": [
        {
          "internalType": "uint8",
          "name": "",
          "type": "uint8"
        }
      ],
      "stateMutability": "view",
      "type": "function"
    },
    {
      "inputs": [
        {
          "internalType": "address",
          "name": "spender",
          "type": "address"
        },
        {
          "internalType": "uint256",
          "name": "subtractedValue",
          "type": "uint256"
        }
      ],
      "name": "decreaseAllowance",
      "outputs": [
        {
          "internalType": "bool",
          "name": "",
          "type": "bool"
        }
      ],
      "stateMutability": "nonpayable",
      "type": "function"
    },
    {
      "inputs": [
        {
          "internalType": "bytes32",
          "name": "role",
          "type": "bytes32"
        }
      ],
      "name": "getRoleAdmin",
      "outputs": [
        {
          "internalType": "bytes32",
          "name": "",
          "type": "bytes32"
        }
      ],
      "stateMutability": "view",
      "type": "function"
    },
    {
      "inputs": [
        {
          "internalType": "bytes32",
          "name": "role",
          "type": "bytes32"
        },
        {
          "internalType": "address",
          "name": "account",
          "type": "address"
        }
      ],
      "name": "grantRole",
      "outputs": [],
      "stateMutability": "nonpayable",
      "type": "function"
    },
    {
      "inputs": [
        {
          "internalType": "bytes32",
          "name": "role",
          "type": "bytes32"
        },
        {
          "internalType": "address",
          "name": "account",
          "type": "address"
        }
      ],
      "name": "hasRole",
      "outputs": [
        {
          "internalType": "bool",
          "name": "",
          "type": "bool"
        }
      ],
      "stateMutability": "view",
      "type": "function"
    },
    {
      "inputs": [
        {
          "internalType": "address",
          "name": "spender",
          "type": "address"
        },
        {
          "internalType": "uint256",
          "name": "addedValue",
          "type": "uint256"
        }
      ],
      "name": "increaseAllowance",
      "outputs": [
        {
          "internalType": "bool",
          "name": "",
          "type": "bool"
        }
      ],
      "stateMutability": "nonpayable",
      "type": "function"
    },
    {
      "inputs": [
        {
          "internalType": "address",
          "name": "account",
          "type": "address"
        },
        {
          "internalType": "uint256",
          "name": "amount",
          "type": "uint256"
        }
      ],
      "name": "mint",
      "outputs": [
        {
          "internalType": "bool",
          "name": "",
          "type": "bool"
        }
      ],
      "stateMutability": "nonpayable",
      "type": "function"
    },
    {
      "inputs": [
        {
          "internalType": "address",
          "name": "account",
          "type": "address"
        },
        {
          "internalType": "uint256",
          "name": "amount",
          "type": "uint256"
        }
      ],
      "name": "mintTreasury",
      "outputs": [],
      "stateMutability": "nonpayable",
      "type": "function"
    },
    {
      "inputs": [],
      "name": "name",
      "outputs": [
        {
          "internalType": "string",
          "name": "",
          "type": "string"
        }
      ],
      "stateMutability": "view",
      "type": "function"
    },
    {
      "inputs": [
        {
          "internalType": "address",
          "name": "utility",
          "type": "address"
        },
        {
          "internalType": "uint256",
          "name": "amount",
          "type": "uint256"
        }
      ],
      "name": "release",
      "outputs": [],
      "stateMutability": "nonpayable",
      "type": "function"
    },
    {
      "inputs": [
        {
          "internalType": "bytes32",
          "name": "role",
          "type": "bytes32"
        },
        {
          "internalType": "address",
          "name": "account",
          "type": "address"
        }
      ],
      "name": "renounceRole",
      "outputs": [],
      "stateMutability": "nonpayable",
      "type": "function"
    },
    {
      "inputs": [
        {
          "internalType": "bytes32",
          "name": "role",
          "type": "bytes32"
        },
        {
          "internalType": "address",
          "name": "account",
          "type": "address"
        }
      ],
      "name": "revokeRole",
      "outputs": [],
      "stateMutability": "nonpayable",
      "type": "function"
    },
    {
      "inputs": [],
      "name": "sealContract",
      "outputs": [],
      "stateMutability": "nonpayable",
      "type": "function"
    },
    {
      "inputs": [
        {
          "internalType": "address",
          "name": "utility",
          "type": "address"
        },
        {
          "internalType": "bool",
          "name": "hasAccess",
          "type": "bool"
        }
      ],
      "name": "setBurner",
      "outputs": [],
      "stateMutability": "nonpayable",
      "type": "function"
    },
    {
      "inputs": [
        {
          "internalType": "address",
          "name": "utility",
          "type": "address"
        },
        {
          "internalType": "bool",
          "name": "hasAccess",
          "type": "bool"
        }
      ],
      "name": "setMinter",
      "outputs": [],
      "stateMutability": "nonpayable",
      "type": "function"
    },
    {
      "inputs": [
        {
          "internalType": "address",
          "name": "utility",
          "type": "address"
        },
        {
          "internalType": "bool",
          "name": "hasAccess",
          "type": "bool"
        }
      ],
      "name": "setRecycler",
      "outputs": [],
      "stateMutability": "nonpayable",
      "type": "function"
    },
    {
      "inputs": [],
      "name": "supply",
      "outputs": [
        {
          "internalType": "uint256",
          "name": "",
          "type": "uint256"
        }
      ],
      "stateMutability": "view",
      "type": "function"
    },
    {
      "inputs": [
        {
          "internalType": "bytes4",
          "name": "interfaceId",
          "type": "bytes4"
        }
      ],
      "name": "supportsInterface",
      "outputs": [
        {
          "internalType": "bool",
          "name": "",
          "type": "bool"
        }
      ],
      "stateMutability": "view",
      "type": "function"
    },
    {
      "inputs": [],
      "name": "symbol",
      "outputs": [
        {
          "internalType": "string",
          "name": "",
          "type": "string"
        }
      ],
      "stateMutability": "view",
      "type": "function"
    },
    {
      "inputs": [],
      "name": "totalAllocation",
      "outputs": [
        {
          "internalType": "uint256",
          "name": "",
          "type": "uint256"
        }
      ],
      "stateMutability": "view",
      "type": "function"
    },
    {
      "inputs": [],
      "name": "totalSupply",
      "outputs": [
        {
          "internalType": "uint256",
          "name": "",
          "type": "uint256"
        }
      ],
      "stateMutability": "view",
      "type": "function"
    },
    {
      "inputs": [
        {
          "internalType": "address",
          "name": "recipient",
          "type": "address"
        },
        {
          "internalType": "uint256",
          "name": "amount",
          "type": "uint256"
        }
      ],
      "name": "transfer",
      "outputs": [
        {
          "internalType": "bool",
          "name": "",
          "type": "bool"
        }
      ],
      "stateMutability": "nonpayable",
      "type": "function"
    },
    {
      "inputs": [
        {
          "internalType": "address",
          "name": "account",
          "type": "address"
        }
      ],
      "name": "transferAdmin",
      "outputs": [],
      "stateMutability": "nonpayable",
      "type": "function"
    },
    {
      "inputs": [
        {
          "internalType": "address",
          "name": "sender",
          "type": "address"
        },
        {
          "internalType": "address",
          "name": "recipient",
          "type": "address"
        },
        {
          "internalType": "uint256",
          "name": "amount",
          "type": "uint256"
        }
      ],
      "name": "transferFrom",
      "outputs": [
        {
          "internalType": "bool",
          "name": "",
          "type": "bool"
        }
      ],
      "stateMutability": "nonpayable",
      "type": "function"
    }
  ],
  "bytecode": "0x60a06040523480156200001157600080fd5b506040518060400160405280600881526020016723a6902a37b5b2b760c11b81525060405180604001604052806002815260200161474d60f01b8152506b01048fd8377628651b0000008282816003908051906020019062000075929190620001a9565b5080516200008b906004906020840190620001a9565b50505060008111620000ba5760405162461bcd60e51b8152600401620000b1906200024f565b60405180910390fd5b6080819052620000d56000620000cf620000de565b620000e2565b505050620002cf565b3390565b620000ee8282620000f2565b5050565b620000fe82826200017e565b620000ee5760008281526005602090815260408083206001600160a01b03851684529091529020805460ff191660011790556200013a620000de565b6001600160a01b0316816001600160a01b0316837f2f8788117e7eff1d82e926ec794901d17c78024a50270940304540a733656f0d60405160405180910390a45050565b60009182526005602090815260408084206001600160a01b0393909316845291905290205460ff1690565b828054620001b79062000292565b90600052602060002090601f016020900481019282620001db576000855562000226565b82601f10620001f657805160ff191683800117855562000226565b8280016001018555821562000226579182015b828111156200022657825182559160200191906001019062000209565b506200023492915062000238565b5090565b5b8082111562000234576000815560010162000239565b60208082526023908201527f455243323052656379636c61626c653a20537570706c79206d7573742062652060408201526203e20360ec1b606082015260800190565b600281046001821680620002a757607f821691505b60208210811415620002c957634e487b7160e01b600052602260045260246000fd5b50919050565b608051611e0562000300600039600081816105ae0152818161088d01528181610b0b0152610cb50152611e056000f3fe608060405234801561001057600080fd5b50600436106102065760003560e01c806370a082311161011a578063a4f82f27116100ad578063c7f1c00c1161007c578063c7f1c00c14610403578063cf456ae714610416578063d539139314610429578063d547741f14610431578063dd62ed3e1461044457610206565b8063a4f82f27146103c2578063a9059cbb146103d5578063b304b2e1146103e8578063b78b52df146103f057610206565b806391d14854116100e957806391d148541461038c57806395d89b411461039f578063a217fddf146103a7578063a457c2d7146103af57610206565b806370a082311461034b57806375829def1461035e57806379203dc4146103715780637929b27b1461037957610206565b8063248a9ca31161019d57806336568abe1161016c57806336568abe146102f7578063395093511461030a57806340c10f191461031d57806342966c681461033057806368bd580e1461034357610206565b8063248a9ca3146102b4578063282c51f3146102c75780632f2ff15d146102cf578063313ce567146102e257610206565b8063095ea7b3116101d9578063095ea7b3146102735780630d895ee11461028657806318160ddd1461029957806323b872dd146102a157610206565b806301ffc9a71461020b5780630357371d14610234578063047fc9aa1461024957806306fdde031461025e575b600080fd5b61021e6102193660046116f3565b610457565b60405161022b9190611790565b60405180910390f35b610247610242366004611690565b610484565b005b6102516105ac565b60405161022b919061179b565b6102666105d0565b60405161022b91906117a4565b61021e610281366004611690565b610662565b610247610294366004611656565b61067f565b6102516106f3565b61021e6102af36600461161b565b6106f9565b6102516102c23660046116b9565b610789565b61025161079e565b6102476102dd3660046116d1565b6107b0565b6102ea6107cf565b60405161022b9190611ca5565b6102476103053660046116d1565b6107d4565b61021e610318366004611690565b61081a565b61021e61032b366004611690565b61086e565b61021e61033e3660046116b9565b610997565b610247610a2a565b6102516103593660046115cf565b610a48565b61024761036c3660046115cf565b610a63565b610251610aaf565b610247610387366004611690565b610ab5565b61021e61039a3660046116d1565b610b72565b610266610b9d565b610251610bac565b61021e6103bd366004611690565b610bb1565b6102516103d03660046115cf565b610c2a565b61021e6103e3366004611690565b610c45565b610251610c59565b6102476103fe366004611690565b610c5f565b610247610411366004611656565b610d93565b610247610424366004611656565b610e15565b610251610e7f565b61024761043f3660046116d1565b610e91565b6102516104523660046115e9565b610eb0565b60006001600160e01b03198216637965db0b60e01b148061047c575061047c82610edb565b90505b919050565b600061049781610492610ef4565b610ef8565b6001600160a01b0383166104c65760405162461bcd60e51b81526004016104bd90611968565b60405180910390fd5b600082116104e65760405162461bcd60e51b81526004016104bd906118e3565b6001600160a01b03831660009081526007602052604090205482111561051e5760405162461bcd60e51b81526004016104bd90611891565b6001600160a01b03831660009081526007602052604081208054849290610546908490611cea565b92505081905550816006600082825461055f9190611cea565b92505081905550826001600160a01b03167fb21fb52d5749b80f3182f8c6992236b5e5576681880914484d7f4c9b062e619e8360405161059f919061179b565b60405180910390a2505050565b7f000000000000000000000000000000000000000000000000000000000000000081565b6060600380546105df90611d44565b80601f016020809104026020016040519081016040528092919081815260200182805461060b90611d44565b80156106585780601f1061062d57610100808354040283529160200191610658565b820191906000526020600020905b81548152906001019060200180831161063b57829003601f168201915b5050505050905090565b600061067661066f610ef4565b8484610f5c565b50600192915050565b600061068d81610492610ef4565b6001600160a01b0383166106b35760405162461bcd60e51b81526004016104bd90611968565b81156106d6576106d1600080516020611d90833981519152846107b0565b6106ee565b6106ee600080516020611d9083398151915284610e91565b505050565b60025490565b6000610706848484611010565b6001600160a01b038416600090815260016020526040812081610727610ef4565b6001600160a01b03166001600160a01b031681526020019081526020016000205490508281101561076a5760405162461bcd60e51b81526004016104bd90611ac8565b61077e85610776610ef4565b858403610f5c565b506001949350505050565b60009081526005602052604090206001015490565b600080516020611d9083398151915281565b6107b982610789565b6107c581610492610ef4565b6106ee838361113a565b601290565b6107dc610ef4565b6001600160a01b0316816001600160a01b03161461080c5760405162461bcd60e51b81526004016104bd90611c1f565b61081682826111c1565b5050565b6000610676610827610ef4565b848460016000610835610ef4565b6001600160a01b03908116825260208083019390935260409182016000908120918b16815292529020546108699190611cb3565b610f5c565b6000600080516020611db083398151915261088b81610492610ef4565b7f0000000000000000000000000000000000000000000000000000000000000000836108b56106f3565b6108bf9190611cb3565b11156108dd5760405162461bcd60e51b81526004016104bd906119e3565b82600760006108ea610ef4565b6001600160a01b03166001600160a01b031681526020019081526020016000205410156109295760405162461bcd60e51b81526004016104bd90611a2d565b6109338484611246565b8260076000610940610ef4565b6001600160a01b03166001600160a01b03168152602001908152602001600020600082825461096f9190611cea565b9250508190555082600660008282546109889190611cea565b90915550600195945050505050565b6000600080516020611d908339815191526109b481610492610ef4565b6109c56109bf610ef4565b8461130e565b82600760006109d2610ef4565b6001600160a01b03166001600160a01b031681526020019081526020016000206000828254610a019190611cb3565b925050819055508260066000828254610a1a9190611cb3565b9091555060019250505b50919050565b6000610a3881610492610ef4565b610a456000610305610ef4565b50565b6001600160a01b031660009081526020819052604090205490565b6000610a7181610492610ef4565b6001600160a01b038216610a975760405162461bcd60e51b81526004016104bd90611968565b610aa26000836107b0565b6108166000610305610ef4565b60065490565b6000610ac381610492610ef4565b6001600160a01b038316610ae95760405162461bcd60e51b81526004016104bd90611968565b60008211610b095760405162461bcd60e51b81526004016104bd906118e3565b7f000000000000000000000000000000000000000000000000000000000000000082600654610b366106f3565b610b409190611cb3565b610b4a9190611cb3565b1115610b685760405162461bcd60e51b81526004016104bd90611a77565b6106ee8383611246565b60009182526005602090815260408084206001600160a01b0393909316845291905290205460ff1690565b6060600480546105df90611d44565b600081565b60008060016000610bc0610ef4565b6001600160a01b0390811682526020808301939093526040918201600090812091881681529252902054905082811015610c0c5760405162461bcd60e51b81526004016104bd90611bda565b610c20610c17610ef4565b85858403610f5c565b5060019392505050565b6001600160a01b031660009081526007602052604090205490565b6000610676610c52610ef4565b8484611010565b60065481565b6000610c6d81610492610ef4565b6001600160a01b038316610c935760405162461bcd60e51b81526004016104bd90611968565b60008211610cb35760405162461bcd60e51b81526004016104bd906118e3565b7f000000000000000000000000000000000000000000000000000000000000000082600654610ce06106f3565b610cea9190611cb3565b610cf49190611cb3565b1115610d125760405162461bcd60e51b81526004016104bd90611a77565b6001600160a01b03831660009081526007602052604081208054849290610d3a908490611cb3565b925050819055508160066000828254610d539190611cb3565b92505081905550826001600160a01b03167f472f36e28bb47edb7c69c9e2ac00a77c66b505df54e9c818ac57110b0629e8c38360405161059f919061179b565b6000610da181610492610ef4565b6001600160a01b038316610dc75760405162461bcd60e51b81526004016104bd90611968565b8115610dfd57610de5600080516020611db0833981519152846107b0565b6106d1600080516020611d90833981519152846107b0565b6106d6600080516020611db083398151915284610e91565b6000610e2381610492610ef4565b6001600160a01b038316610e495760405162461bcd60e51b81526004016104bd90611968565b8115610e67576106d1600080516020611db0833981519152846107b0565b6106ee600080516020611db083398151915284610e91565b600080516020611db083398151915281565b610e9a82610789565b610ea681610492610ef4565b6106ee83836111c1565b6001600160a01b03918216600090815260016020908152604080832093909416825291909152205490565b6001600160e01b031981166301ffc9a760e01b14919050565b3390565b610f028282610b72565b61081657610f1a816001600160a01b031660146113ff565b610f258360206113ff565b604051602001610f3692919061171b565b60408051601f198184030181529082905262461bcd60e51b82526104bd916004016117a4565b6001600160a01b038316610f825760405162461bcd60e51b81526004016104bd90611b96565b6001600160a01b038216610fa85760405162461bcd60e51b81526004016104bd90611926565b6001600160a01b0380841660008181526001602090815260408083209487168084529490915290819020849055517f8c5be1e5ebec7d5bd14f71427d1e84f3dd0314c0f7b2291e5b200ac8c7c3b9259061100390859061179b565b60405180910390a3505050565b6001600160a01b0383166110365760405162461bcd60e51b81526004016104bd90611b51565b6001600160a01b03821661105c5760405162461bcd60e51b81526004016104bd9061180c565b6110678383836106ee565b6001600160a01b038316600090815260208190526040902054818110156110a05760405162461bcd60e51b81526004016104bd9061199d565b6001600160a01b038085166000908152602081905260408082208585039055918516815290812080548492906110d7908490611cb3565b92505081905550826001600160a01b0316846001600160a01b03167fddf252ad1be2c89b69c2b068fc378daa952ba7f163c4a11628f55a4df523b3ef84604051611121919061179b565b60405180910390a36111348484846106ee565b50505050565b6111448282610b72565b6108165760008281526005602090815260408083206001600160a01b03851684529091529020805460ff1916600117905561117d610ef4565b6001600160a01b0316816001600160a01b0316837f2f8788117e7eff1d82e926ec794901d17c78024a50270940304540a733656f0d60405160405180910390a45050565b6111cb8282610b72565b156108165760008281526005602090815260408083206001600160a01b03851684529091529020805460ff19169055611202610ef4565b6001600160a01b0316816001600160a01b0316837ff6391f5c32d9c69d2a47ea670b442974b53935d1edc7fd64eb21e047a839171b60405160405180910390a45050565b6001600160a01b03821661126c5760405162461bcd60e51b81526004016104bd90611c6e565b611278600083836106ee565b806002600082825461128a9190611cb3565b90915550506001600160a01b038216600090815260208190526040812080548392906112b7908490611cb3565b90915550506040516001600160a01b038316906000907fddf252ad1be2c89b69c2b068fc378daa952ba7f163c4a11628f55a4df523b3ef906112fa90859061179b565b60405180910390a3610816600083836106ee565b6001600160a01b0382166113345760405162461bcd60e51b81526004016104bd90611b10565b611340826000836106ee565b6001600160a01b038216600090815260208190526040902054818110156113795760405162461bcd60e51b81526004016104bd9061184f565b6001600160a01b03831660009081526020819052604081208383039055600280548492906113a8908490611cea565b90915550506040516000906001600160a01b038516907fddf252ad1be2c89b69c2b068fc378daa952ba7f163c4a11628f55a4df523b3ef906113eb90869061179b565b60405180910390a36106ee836000846106ee565b6060600061140e836002611ccb565b611419906002611cb3565b67ffffffffffffffff81111561143f57634e487b7160e01b600052604160045260246000fd5b6040519080825280601f01601f191660200182016040528015611469576020820181803683370190505b509050600360fc1b8160008151811061149257634e487b7160e01b600052603260045260246000fd5b60200101906001600160f81b031916908160001a905350600f60fb1b816001815181106114cf57634e487b7160e01b600052603260045260246000fd5b60200101906001600160f81b031916908160001a90535060006114f3846002611ccb565b6114fe906001611cb3565b90505b6001811115611592576f181899199a1a9b1b9c1cb0b131b232b360811b85600f166010811061154057634e487b7160e01b600052603260045260246000fd5b1a60f81b82828151811061156457634e487b7160e01b600052603260045260246000fd5b60200101906001600160f81b031916908160001a90535060049490941c9361158b81611d2d565b9050611501565b5083156115b15760405162461bcd60e51b81526004016104bd906117d7565b9392505050565b80356001600160a01b038116811461047f57600080fd5b6000602082840312156115e0578081fd5b6115b1826115b8565b600080604083850312156115fb578081fd5b611604836115b8565b9150611612602084016115b8565b90509250929050565b60008060006060848603121561162f578081fd5b611638846115b8565b9250611646602085016115b8565b9150604084013590509250925092565b60008060408385031215611668578182fd5b611671836115b8565b915060208301358015158114611685578182fd5b809150509250929050565b600080604083850312156116a2578182fd5b6116ab836115b8565b946020939093013593505050565b6000602082840312156116ca578081fd5b5035919050565b600080604083850312156116e3578182fd5b82359150611612602084016115b8565b600060208284031215611704578081fd5b81356001600160e01b0319811681146115b1578182fd5b60007f416363657373436f6e74726f6c3a206163636f756e742000000000000000000082528351611753816017850160208801611d01565b7001034b99036b4b9b9b4b733903937b6329607d1b6017918401918201528351611784816028840160208801611d01565b01602801949350505050565b901515815260200190565b90815260200190565b60006020825282518060208401526117c3816040850160208701611d01565b601f01601f19169190910160400192915050565b6020808252818101527f537472696e67733a20686578206c656e67746820696e73756666696369656e74604082015260600190565b60208082526023908201527f45524332303a207472616e7366657220746f20746865207a65726f206164647260408201526265737360e81b606082015260800190565b60208082526022908201527f45524332303a206275726e20616d6f756e7420657863656564732062616c616e604082015261636560f01b606082015260800190565b60208082526032908201527f455243323052656379636c61626c653a2052656c6561736520616d6f756e742060408201527132bc31b2b2b2399030b63637b1b0ba34b7b760711b606082015260800190565b60208082526023908201527f455243323052656379636c61626c653a20416d6f756e74206d7573742062652060408201526203e20360ec1b606082015260800190565b60208082526022908201527f45524332303a20617070726f766520746f20746865207a65726f206164647265604082015261737360f01b606082015260800190565b6020808252818101527f455243323052656379636c61626c653a20496e76616c69642061646472657373604082015260600190565b60208082526026908201527f45524332303a207472616e7366657220616d6f756e7420657863656564732062604082015265616c616e636560d01b606082015260800190565b6020808252602a908201527f455243323052656379636c61626c653a20416d6f756e742065786365656473206040820152696d617820737570706c7960b01b606082015260800190565b6020808252602a908201527f455243323052656379636c61626c653a20416d6f756e7420657863656564732060408201526930b63637b1b0ba34b7b760b11b606082015260800190565b60208082526031908201527f455243323052656379636c61626c653a20546f74616c20737570706c7920616c6040820152701b1bd8d85d1a5bdb88195e18d959591959607a1b606082015260800190565b60208082526028908201527f45524332303a207472616e7366657220616d6f756e74206578636565647320616040820152676c6c6f77616e636560c01b606082015260800190565b60208082526021908201527f45524332303a206275726e2066726f6d20746865207a65726f206164647265736040820152607360f81b606082015260800190565b60208082526025908201527f45524332303a207472616e736665722066726f6d20746865207a65726f206164604082015264647265737360d81b606082015260800190565b60208082526024908201527f45524332303a20617070726f76652066726f6d20746865207a65726f206164646040820152637265737360e01b606082015260800190565b60208082526025908201527f45524332303a2064656372656173656420616c6c6f77616e63652062656c6f77604082015264207a65726f60d81b606082015260800190565b6020808252602f908201527f416363657373436f6e74726f6c3a2063616e206f6e6c792072656e6f756e636560408201526e103937b632b9903337b91039b2b63360891b606082015260800190565b6020808252601f908201527f45524332303a206d696e7420746f20746865207a65726f206164647265737300604082015260600190565b60ff91909116815260200190565b60008219821115611cc657611cc6611d79565b500190565b6000816000190483118215151615611ce557611ce5611d79565b500290565b600082821015611cfc57611cfc611d79565b500390565b60005b83811015611d1c578181015183820152602001611d04565b838111156111345750506000910152565b600081611d3c57611d3c611d79565b506000190190565b600281046001821680611d5857607f821691505b60208210811415610a2457634e487b7160e01b600052602260045260246000fd5b634e487b7160e01b600052601160045260246000fdfe3c11d16cbaffd01df69ce1c404f6340ee057498f5f00246190ea54220576a8489f2df0fed2c77648de5860a4cc508cd0818c85b8b8a1ab4ceeef8d981c8956a6a2646970667358221220df438a7ef8d5734870f7c97f8562e1f2f8c4bd2121f91ed7f3bd3c544001c27964736f6c63430008000033",
  "linkReferences": {},
  "deployedLinkReferences": {}
}